:100000000A128A11402F00308A000408840A8207ED
:1000100000347334723469346B3472346934733439
:0E00200068346E3461340034203447340034C8
:100E800083010A128A11442F8316031386010A1262
:100E90008A115E270A128A114D2F01300A128A1117
:100EA0007D270A128A110C300A128A117D270A1234
:100EB0008A114D2F4D2F0A128A11002802300A1272
:100EC0008A11CF270A128A1128300A128A11CF27D5
:100ED0000A128A1106300A128A11CF270A128A11C1
:100EE0000C300A128A11CF270A128A1101300A1215
:100EF0008A11CF270A128A110800F400902F740873
:100F000084000A128A1103200A128A110A128A1115
:100F10009E270A128A110130F3007308F407902FFC
:100F2000740884000A128A1103200A128A110038F8
:100F3000031D9B2F9C2F7F2F9D2F0800F20072080E
:100F4000F03983120313860086100614061521302B
:100F5000F1007630F000F00BAB2FF10BAB2F6400FB
:100F60008312031306117208F00003300310F00D12
:100F7000FF3E031DB62F0310700DF039860086105A
:100F8000061406152130F1007630F000F00BC62F64
:100F9000F10BC62F64008312031306110800F20040
:100FA0007208F039831203138600861006100615A6
:100FB0002130F1007630F000F00BDC2FF10BDC2F4C
:100FC00064008312031306117208F000033003104B
:100FD000F00DFF3E031DE72F0310700DF039860062
:100FE0008610061006152130F1007630F000F00B67
:100FF000F72FF10BF72F640083120313061108007B
:00000001FF
