:100000000A128A110F2E00308A000408840A82071F
:10001000003443344F3455344E3454342034443453
:0E0020004934533450344C3441345934003494
:100C1E0083010A128A11B52E02300A128A11842615
:100C2E000A128A1128300A128A1184260A128A118F
:100C3E0006300A128A1184260A128A110C300A1200
:100C4E008A1184260A128A1101300A128A11842608
:100C5E000A128A110800F400452E740884000A1244
:100C6E008A1103200A128A110A128A1153260A12B5
:100C7E008A110130F3007308F407452E74088400BE
:100C8E000A128A1103200A128A110038031D502EEF
:100C9E00512E342E522E0800F2007208F0398312B3
:100CAE00031386008610061406152130F1007630E7
:100CBE00F000F00B602EF10B602E64008312031314
:100CCE0006117208F00003300310F00DFF3E031DF5
:100CDE006B2E0310700DF039860086100614061563
:100CEE002130F1007630F000F00B7B2EF10B7B2ED5
:100CFE0064008312031306110800F2007208F03923
:100D0E008312031386008610061006152130F1009B
:100D1E007630F000F00B912EF10B912E64008312C1
:100D2E00031306117208F00003300310F00DFF3E9E
:100D3E00031D9C2E0310700DF039860086100610D0
:100D4E0006152130F1007630F000F00BAC2EF10BD1
:100D5E00AC2E6400831203130611080083160313CE
:100D6E00860107140A128A1113260A128A110030FC
:100D7E00F9000030FA0080300A128A1184260A1215
:100D8E008A1101300A128A1132260A128A11CF2EC6
:100D9E0083120313071CD42ED52ECF2EC0300A1269
:100DAE008A1184260A128A117908013EF9007A08FE
:100DBE000318013E003EFA000A30F0000030F10048
:100DCE007A08F301F3077908F201F2070A128A1181
:100DDE0087270A128A117008303E0A128A1153268A
:100DEE000A128A110A30F0000030F1007A08F3017D
:100DFE00F3077908F201F2070A128A111D270A1267
:100E0E008A117008303E0A128A1153260A128A116C
:100E1E00102F831203130718152F162F102FCF2EF6
:100E2E00CF2ECF2ECF2E0A128A110028031000309B
:100E3E0003180130F600F31F252F262F2F2FF2094E
:100E4E00F309F20A0319F30AF6010314F60D2F2F14
:100E5E00F11F322F332F392FF009F109F00A031940
:100E6E00F10A392F7108700403193E2F3F2F752F89
:100E7E00F5010314F50D4F2F01300310F00DF10D98
:100E8E00FF3E031D442F0130F4007408F5074F2F69
:100E9E00F11F522F532F432F552F552F71087302C9
:100EAE00031D5B2F70087202031C5E2F5F2F662FCF
:100EBE007008F2027108031CF303F302662F01306F
:100ECE000310F10CF00CFF3E031D672F0130F502ED
:100EDE00031D722F732F552F752F752F7608031D37
:100EEE00792F7F2FF209F309F20A0319F30A7F2FE4
:100EFE007308F101F1077208F001F007862F080060
:100F0E000310003003180130F600F11F8F2F902FC1
:100F1E00992FF009F109F00A0319F10AF6010314E9
:100F2E00F60D992FF31F9C2F9D2FA62FF209F30973
:100F3E00F20A0319F30A0130F4007408F6060030C1
:100F4E00F7000030F800710870040319AF2FB02FAE
:100F5E00EE2FF5010314F50DC02F01300310F00D27
:100F6E00F10DFF3E031DB52F0130F4007408F50797
:100F7E00C02FF11FC32FC42FB42FC62FC62F013081
:100F8E000310F70DF80DFF3E031DC72F71087302F6
:100F9E00031DD32F70087202031CD62FD72FDF2FFD
:100FAE007008F2027108031CF303F3027714DF2FAB
:100FBE0001300310F10CF00CFF3E031DE02F013049
:100FCE00F502031DEB2FEC2FC62FEE2FEE2F76081A
:100FDE00031DF22FF82FF709F809F70A0319F80A7B
:100FEE00F82F7808F101F1077708F001F007FF2FCD
:020FFE000800E9
:00000001FF
