:100000000A128A11862E00308A000408840A8207A8
:1000100000344C3445344434203453345434413463
:1000200054345534533400344C344534443431342E
:100030003A3400344C344534443432343A340034A5
:100040004C344534443433343A3400344C3445343D
:10005000443434343A3400344F344E342034003491
:080060004F34463446340034ED
:100D0C0083010A128A112C2F02300A128A11FB2637
:100D1C000A128A1128300A128A11FB260A128A1129
:100D2C0006300A128A11FB260A128A110C300A129A
:100D3C008A11FB260A128A1101300A128A11FB262B
:100D4C000A128A110800F400BC2E740884000A12DE
:100D5C008A1103200A128A110A128A11CA260A124F
:100D6C008A110130F3007308F407BC2E7408840058
:100D7C000A128A1103200A128A110038031DC72E89
:100D8C00C82EAB2EC92E0800F2007208F03983125F
:100D9C00031386008610061406152130F1007630F8
:100DAC00F000F00BD72EF10BD72E64008312031337
:100DBC0006117208F00003300310F00DFF3E031D06
:100DCC00E22E0310700DF0398600861006140615FD
:100DDC002130F1007630F000F00BF22EF10BF22EF8
:100DEC0064008312031306110800F2007208F03934
:100DFC008312031386008610061006152130F100AD
:100E0C007630F000F00B082FF10B082F64008312E2
:100E1C00031306117208F00003300310F00DFF3EAF
:100E2C00031D132F0310700DF03986008610061069
:100E3C0006152130F1007630F000F00B232FF10B6A
:100E4C00232F640083120313061108008316031367
:100E5C0086010F3087000A128A118A260A128A111B
:100E6C0080300A128A11FB260A128A1101300A12EA
:100E7C008A11A9260A128A11C0300A128A11FB267D
:100E8C000A128A110C300A128A11A9260A128A1126
:100E9C00C9300A128A11FB260A128A1112300A1260
:100EAC008A11A9260A128A11D0300A128A11FB263D
:100EBC000A128A1118300A128A11A9260A128A11EA
:100ECC00D9300A128A11FB260A128A111E300A1214
:100EDC008A11A9260A128A11732F83120313071C75
:100EEC00782F792F872F0716C5300A128A11FB2607
:100EFC000A128A1124300A128A11A9260A128A119E
:100F0C00952F0712C5300A128A11FB260A128A1174
:100F1C0028300A128A11A9260A128A11952F8312D7
:100F2C000313871C9A2F9B2FA92F8716CC300A12DC
:100F3C008A11FB260A128A1124300A128A11A92658
:100F4C000A128A11B72F8712CC300A128A11FB268B
:100F5C000A128A1128300A128A11A9260A128A1139
:100F6C00B72F83120313071DBC2FBD2FCB2F0717D1
:100F7C00D5300A128A11FB260A128A1124300A1261
:100F8C008A11A9260A128A11D92F0713D5300A12F1
:100F9C008A11FB260A128A1128300A128A11A926F4
:100FAC000A128A11D92F83120313871DDE2FDF2F0C
:100FBC00ED2F8717DC300A128A11FB260A128A11D0
:100FCC0024300A128A11A9260A128A11732F871348
:100FDC00DC300A128A11FB260A128A1128300A12F6
:100FEC008A11A9260A128A11732F732F732F0A12D2
:040FFC008A1100282E
:00000001FF
