:060000000A128A11B62F5E
:100F6C0083010A128A11BA2F8316031306148610F2
:100F7C000030F0000030F1000030F4000030F500DB
:100F8C008312061CCA2FCB2FC22FD62FD62F720836
:100F9C00013EF20073080318013E003EF300D62F09
:100FAC00061CD92FDA2FCD2FDB2F013074067504D8
:100FBC00031DE12FE22FE42F8614C22F023074069A
:100FCC007504031DEA2FEB2FED2F8610C22F033073
:100FDC0074067504031DF32FF42FF62F8614C22FFD
:100FEC008610C22FC22FC22FC22FC22FC22F0A129D
:040FFC008A1100282E
:00000001FF
