:100000000A128A11822E00308A000408840A8207AC
:1000100000344B3445345934503441344434203462
:0C00200049344E3450345534543400340C
:100D040083010A128A11E82EF20072088312031377
:100D14008600871007140715A330F1005530F00042
:100D2400F00B922EF10B922E83120313071108007D
:100D3400F200720883120313860087100710071548
:100D4400A330F1005530F000F00BA62EF10BA62EC7
:100D5400831203130711080038300A128A119A26E5
:100D64000A128A1106300A128A119A260A128A1164
:100D74000C300A128A119A260A128A1101300A12B8
:100D84008A119A260A128A110800F500031000300D
:100D940003180130F600E02E7608750784000A1265
:100DA4008A1103200A128A110A128A1186260A124B
:100DB4008A110130F4007408F607E02E73087602F5
:100DC400031CE52EE62ECE2EE72E08008316031311
:100DD4000810881008118312031388018316031363
:100DE4008601F03087000A128A11AE260A128A118F
:100DF40080300A128A119A260A128A110C30F700DE
:100E04007708F30001300A128A11C7260A128A11E0
:100E1400C0300A128A119A260A128A11112F0A1254
:100E24008A111B270A128A11112F112F0A128A11F3
:100E3400002883120313081488100811071E232F97
:100E4400242F322F31300A128A1186260A128A116F
:100E54002B2F83120313071A302F312F2B2F322FEE
:100E6400871E352F362F442F34300A128A118626D6
:100E74000A128A113D2F83120313871A422F432F1C
:100E84003D2F442F071F472F482F562F37300A1264
:100E94008A1186260A128A114F2F83120313071B05
:100EA400542F552F4F2F562F871F592F5A2F682FE6
:100EB4002A300A128A1186260A128A11612F831295
:100EC4000313871B662F672F612F682F0810881460
:100ED4000811071E6E2F6F2F7D2F32300A128A11D0
:100EE40086260A128A11762F83120313071A7B2F80
:100EF4007C2F762F7D2F871E802F812F8F2F3530CB
:100F04000A128A1186260A128A11882F8312031361
:100F1400871A8D2F8E2F882F8F2F071F922F932F95
:100F2400A12F38300A128A1186260A128A119A2FA2
:100F340083120313071B9F2FA02F9A2FA12F871F04
:100F4400A42FA52FB32F30300A128A1186260A1235
:100F54008A11AC2F83120313871BB12FB22FAC2F2E
:100F6400B32F081088100815071EB92FBA2FC82FE1
:100F740033300A128A1186260A128A11C12F83126B
:100F84000313071AC62FC72FC12FC82F871ECB2FB5
:100F9400CC2FDA2F36300A128A1186260A128A11C9
:100FA400D32F83120313871AD82FD92FD32FDA2FD5
:100FB400071FDD2FDE2FEC2F39300A128A11862607
:100FC4000A128A11E52F83120313071BEA2FEB2F52
:100FD400E52FEC2F871FEF2FF02FFF2F23300A125E
:100FE4008A1186260A128A11F72F83120313871B8C
:0C0FF400FC2FFD2FF72FFF2FFF2F080010
:00000001FF
